:100000003BC0000055C0000053C0000051C00000BC
:100010004FC000004DC000004BC0000049C00000B0
:1000200047C0000045C0000043C0000041C00000C0
:100030003FC000003DC000003BC0000039C00000D0
:1000400037C0000035C0000033C0000031C00000E0
:100050002FC000002DC000002BC0000029C00000F0
:1000600027C0000030C1000023C0000021C00000F4
:100070001FC000001DC0000011241FBECFEFCDBF68
:10008000DFE3DEBF8091400080934000811105C016
:1000900098ED21E094BF209341008CBB24E3A0E0C5
:1000A000B4E301C01D92A430B207E1F728D178C2B1
:1000B000A7CF9FB7F894E0919A0AF0919B0A80919C
:1000C000960A2091003430910134409102345091CD
:1000D00003349FBF80FF08C0CF018827892B21F4FC
:1000E0002F5F3F4F4F4F5F4F0F01169407941694A9
:1000F000079416940794F0011694079416940794A5
:10010000E019F109169407940694102C169416948D
:10011000011816941694010C1124E00DF11DA8EE9F
:10012000B3E025D26E0F7F1F811D911D0895CF92E0
:10013000DF92EF92FF92CF93DF936B017C01B9DFE7
:10014000EB01C114D104E104F10441F412C081E0D7
:10015000C81AD108E108F108C851DC4FAADF6C1BAE
:100160007D0B683E734068F3C114D104E104F104CF
:1001700071F7DF91CF91FF90EF90DF90CF900895CE
:10018000282F30E08231A8F4F901E954F947808141
:100190008F3F79F02B553947D901EC91B0E2EB9FB5
:1001A000F0011124FC5F9085982381E019F480E030
:1001B00008958FEF0895CF93DF9389E0E1DF8111F8
:1001C0000BC0C0E3D5E789E0DBDF813029F0219760
:1001D000D1F781E090E002C090E080E0DF91CF9124
:1001E0000895CF93DF93823108F043C090E0EC0193
:1001F000C954D94728812F3F09F43BC0AC014B5566
:100200005947DA01EC91B0E2EB9FF0011124FC5F59
:10021000611132C0268330812323A1F49C012D5625
:100220003947D9012C91309749F1283038F570962B
:10023000E20FF11D3FB7F8942081611122C0277FA2
:1002400020833FBF8F579947FC018081882389F025
:10025000803179F48881DA019C919130A1F4853064
:1002600010F0880F82959091010A809589238093E0
:10027000010ADF91CF9108952583CDCFF0E0E0E032
:10028000D9CF2860DDCF880FEECFCF93DF93C1E7C2
:10029000D6E88881229661E0A4DF86E8CF37D807C8
:1002A000C1F7DF91CF910895CF93DF93C1E7D6E8EF
:1002B0008881229660E095DF86E8CF37D807C1F7BE
:1002C000DF91CF9108958F9381E08093960A8FB745
:1002D0008F93EF93FF93E0E0F4E380818F5F80835F
:1002E00081818F4F818382818F4F828383818F4F62
:1002F0008383FF91EF918F918FBF8F91189588ED38
:1003000090E084BF90936100E0E0F6E083E08183B9
:100310009FE0908791E2908390EA92839AE093879E
:100320001092E40591E09093030A2EEF2093260AA1
:100330002093270A2BE02093000A2FE037E2209336
:100340009C0A30939D0A9093950A1092910A80938B
:10035000900A789401E716E8D8012D913D918D011E
:10036000C90199272231C8F4FC01E954F9472081D9
:100370002F3F99F0FC01EB55F947E081B0E2EB9F8C
:10038000F0011124FC5F21838D569947DC018C918B
:10039000E80FF11D8089877F808BB6E80F371B0738
:1003A000D9F681E08093220480913004877F809386
:1003B00030046BDF79DFC1E7D6E88881229661E0FF
:1003C00010DF66E470E080E090E0B1DE0C171D07FE
:1003D000A1F7E1E7EE2EE6E8FE2EF7018081F2E0DC
:1003E000EF0EF11C60E0FDDE66E470E080E090E07E
:1003F0009EDEEC16FD0689F764E670E080E090E092
:1004000096DED9DE892BA9F275E0E72EF12C6AEF92
:1004100070E080E090E08BDE89E0B2DE813009F0B0
:10042000A0C060E3C62E65E7D62E89E0A9DE88234A
:1004300009F497C031E0C31AD108B9F755E0C52EC9
:10044000D12C23DF66E970E080E090E070DE2CDFE5
:1004500066E970E080E090E06ADE17DF66E970E050
:1004600080E090E064DE20DF66E970E080E090E00C
:100470005EDE62EC71E080E090E059DE9CDE892B6C
:1004800009F46AC034EAC32E35E8D32E47E9B42E06
:10049000D601FC90FF2021F107DF8F2D8B2501E78E
:1004A00016E8E82E082E000CFF0880FF15C061E05A
:1004B000F801808196DEC701959587950E5F1F4FE5
:1004C0000C171D0771F766E470E080E090E02FDE06
:1004D000B3E0CB0ED11CDCCF60E0D8018C91EACF29
:1004E000E3DE60E971E080E090E021DEC12CD12CF8
:1004F0007601C9E1D0E0C9DEC701B60118DED4DE5D
:1005000064E070E080E090E012DE2197A1F7EFEF69
:10051000CE1ADE0AEE0AFE0AFAE0CF16D104E10492
:10052000F10439F7C9E1D0E0B0DEC701B601FFDD63
:10053000BBDE64E070E080E090E0F9DD2197A1F798
:1005400031E0C31AD108E108F1088FEFC816D806C8
:10055000E806F80639F7C4CF91E0C91AD10809F0C6
:1005600070CFA1E0EA1AF10809F051CF22CF09D0EB
:10057000A59F900DB49F900DA49F800D911D1124F7
:100580000895A29FB001B39FC001A39F700D811D6C
:100590001124911DB29F700D811D1124911D08958C
:0405A000F894FFCFFD
:1005A400C384C3A3C39BC392C382C385C394C384BC
:1005B400C3B2C392C3A3C392C393C3B2C385C3825A
:1005C400C395C3B3C3ACC3A3C3BDC3B0C2A2C386E4
:1005D400C2A4C3AEC2AAC3A3C399C396C388C3812A
:1005E400C3BCC3A5C394C39BC2A4C380C392C3A109
:1005F400C2BCC2A7C2B0C380C3BCC3B3C382C3A5B9
:10060400C388C3B9C3A0C2AEC2B8C3A5C3B1C38DA6
:10061400C2AEC2A7C3BEC391C3B6C396C380C2A6AB
:10062400C2B8C3A3C3B6C399C399C2A4C3A7C39B87
:10063400C2A0C399C2B8C2A2C3A0C38FC2A1C3B986
:10064400C3B1C2A2C3B3C2B8C2A4C385C380C2A08B
:10065400C393C399C2AEC2AAC3A3C2AFC393C39B7D
:10066400C3B4C2AAC386C3AAC39BC399000200032E
:10067400000400050006000700080009001010002F
:100684000000000010101000000000000010000422
:100694000506070504030201000001020301020329
:1006A4000000000000010101010101020202020038
:1006B4000000001020408020100804020101020400
:0506C40008020408011A
:00000001FF
